:1000000000308A00D9290000410DF700F70DF70DE7
:10001000F830F7051F08C73977049F0000344430D3
:10002000840083130008031923280130F800F70126
:10003000F70B1828F80B17280E30F700F70B1E28BF
:100040000000800B15280034831686118312861554
:1000500083168612831286168316061283120612E0
:100060004208C300C30AC30303193A28FF30C4007F
:100070000F2033284108C4000F20003483160610D7
:100080008312061483160611831206158316861032
:10009000831286104208C300C30AC30303195428FD
:1000A000FF30C4000F204D284108C4000F20003449
:1000B0008316861183128615831686128312861282
:1000C00083160612831206164208C300C30AC3032E
:1000D00003196E28FF30C4000F2067284108C400B0
:1000E0000F2000348316061083120614831606119F
:1000F0008312061183168610831286144208C300E9
:10010000C30AC30303198828FF30C4000F208128C5
:100110004108C4000F200034C10104200130C20096
:10012000F430C1002420BC01C0014008BC001F15F0
:100130001F1998281E08C00040083C020319A12876
:1001400095280130C10004200130C200F430C10004
:100150003E20BD01C0014008BD001F151F19AE287B
:100160001E08C00040083D020319B728AB28C10192
:1001700004200130C200F430C1005820BE01C0018B
:100180004008BE001F151F19C3281E08C0004008E4
:100190003E020319CC28C0280130C10004200130E0
:1001A000C200F430C1007220BF01C0014008BF008E
:1001B0001F151F19D9281E08C00040083F02031947
:1001C000E228D6283C08BB003D083B020318EA2879
:1001D0003D08BB003E083B020318F0283E08BB0068
:1001E0003F083B020318F6283F08BB003B08F80015
:1001F0008A110A12212AC10104208F018E01C20135
:10020000C10124201F151F1903291E083B020319D1
:100210000B29031802290F08FA000E08F7000F082F
:100220007A02031D0B297708BC007A08BD003C0840
:10023000F8003D08F9008A110A12262AF701F80190
:100240004A0803104B18F707F70CF80CCB18F70700
:10025000F70CF80C4B19F707F70CF80CCB19F7074C
:10026000F70CF80C4B1AF707F70CF80CCB1AF7073A
:10027000F70CF80C4B1BF707F70CF80CCB1BF70728
:10028000F70CF80C00341030D100F701FA01CE0C55
:10029000CD0C031C51294F08F7070318FA0A500820
:1002A000FA07FA0CF70CF90CF80CD10B47290034BB
:1002B0004308CA000A30CB001E2178084407C90051
:1002C0004208CA006430CB001E2178084907CA00E2
:1002D000CE014108CD000330D000E830CF004321EB
:1002E0007908FA0078084A07CB007908CC0003188F
:1002F000CC0ACE014008CD002730D0001030CF000E
:10030000432178084B07C5004C08C600790803183C
:10031000790FC607C701C8014508F7004608F8006D
:100320004708F9004808FA000034F701F801F9011C
:10033000FA01C301C401C501C601420841044004D9
:100340003F040319D3292030C7000310BB0DBC0D97
:10035000BD0DBE0DC30DC40DC50DC60D4208460230
:10036000031DBC2941084502031DBC294008440265
:10037000031DBC293F084302031CCD293F08C302CB
:100380004008031C400FC4024108031C410FC50272
:100390004208031C420FC6020314F70DF80DF90DB5
:1003A000FA0DC70BA5294330840083138A110A1262
:1003B000DF2A840183131F3083055430831699008C
:1003C000A630980090308312980083161F149F1453
:1003D0001F159F1107309C001F109F101F119F11A8
:1003E0001F1383121F179F1783169F1383121F1447
:1003F000B5309000A101A201A701A601A501A401A9
:10040000A301AC01AB01AA01A901A801AE018C1E98
:10041000A02B8C1E092A1A08233C031DA02B8C1E1E
:100420000F2A8C1E112A1A08A1002108313A03193B
:10043000202A033A03194A2A013A03199D2B9E2BBD
:100440008C287808AD002D08BB00FB287908B00087
:100450007808AF002D080C1E2B2A99000230BB0033
:10046000FA30C4000F20BB0B302A2F08BB002F0826
:100470000C1E382A99000230BB00FA30C4000F204D
:10048000BB0B3D2A3008BB0030080C1E452A9900E2
:100490009001F8298C1E4A2A8C1E4C2A1A08A200A8
:1004A0008C1E502A8C1E522A1A08A3008C1E562A13
:1004B0008C1E582A1A08A4008C1E5C2A8C1E5E2AE8
:1004C0001A08A5008C1E622A8C1E642A1A08A6002F
:1004D0008C1E682A8C1E6A2A1A08A7003030230254
:1004E000BB0030302402BC0030302502BD0030306B
:1004F0002602BE0030302702BF003B08C0003C0887
:10050000C1003D08C2003E08C3003F08C400582196
:100510007A08B4007908B3007808B2007708B1000F
:100520008C1E902A8C1E922A1A08A8008C1E962ACD
:100530008C1E982A1A08A9008C1E9C2A8C1E9E2AA2
:100540001A08AA008C1EA22A8C1EA42A1A08AB0024
:100550008C1EA82A8C1EAA2A1A08AC003030280249
:10056000BB0030302902BC0030302A02BD003030E0
:100570002B02BE0030302C02BF003B08C0003C08FC
:10058000C1003D08C2003E08C3003F08C400582116
:100590007A08B8007908B7007808B6007708B5007F
:1005A000BE01BD01EA30BC006030BB003808C200AB
:1005B0003708C1003608C0003508BF009529780803
:1005C000BA007708B9002208313A0319EB2A033A36
:1005D0000319432B9C2BAE01B108031DF82AB20866
:1005E000031DF82AB308031DF82AB4080319422B87
:1005F0008C1E152B8C1EFA2A1A08233C031D152B62
:100600008C1E002B8C1E022B1A08A1002108313AE7
:100610000319112B033A0319122B013A0319132B57
:10062000142B202A4A2AF829F8292E08043C0319F9
:10063000AE01AE0A01302E02FC3E0318392B043EF7
:10064000A22B3A08C2003908C1002420392B3A08ED
:10065000C2003908C1003E20392B3A08C2003908CF
:10066000C1005820392B3A08C2003908C100722055
:10067000392BFF30B107031CB207031CB307031C5F
:10068000B407EC2AF829AE01B108031D502BB208BB
:10069000031D502BB308031D502BB40803199B2BCB
:1006A0008C1E6E2B8C1E522B1A08233C031D6E2BA6
:1006B0008C1E582B8C1E5A2B1A08A1002108313A87
:1006C0000319692B033A03196A2B013A03196B2B9F
:1006D0006C2B202A4A2AF829F829F8292E08043CEC
:1006E0000319AE01AE0A01302E02FC3E0318922B14
:1006F000043EAA2B3A08C2003908C1007220922B8E
:100700003A08C2003908C1005820922B3A08C200AA
:100710003908C1003E20922B3A08C2003908C100B6
:100720002420922BFF30B107031CB207031CB30730
:10073000031CB407442BF829F829F829F8290F2AB3
:10074000FA2963000A148A140A118207212B272B25
:100750002D2B332B0A148A140A1182077A2B802B33
:04076000862B8C2B2D
:02400E0039393E
:00000001FF
;PIC16F877A
